{
  "contractName": "SocialNetwork",
  "abi": [
    {
      "constant": true,
      "inputs": [],
      "name": "name",
      "outputs": [
        {
          "name": "",
          "type": "string"
        }
      ],
      "payable": false,
      "stateMutability": "view",
      "type": "function",
      "signature": "0x06fdde03"
    },
    {
      "constant": true,
      "inputs": [
        {
          "name": "",
          "type": "uint256"
        }
      ],
      "name": "posts",
      "outputs": [
        {
          "name": "id",
          "type": "uint256"
        },
        {
          "name": "content",
          "type": "string"
        },
        {
          "name": "hash",
          "type": "string"
        },
        {
          "name": "tipAmount",
          "type": "uint256"
        },
        {
          "name": "author",
          "type": "address"
        }
      ],
      "payable": false,
      "stateMutability": "view",
      "type": "function",
      "signature": "0x0b1e7f83"
    },
    {
      "constant": true,
      "inputs": [],
      "name": "postCount",
      "outputs": [
        {
          "name": "",
          "type": "uint256"
        }
      ],
      "payable": false,
      "stateMutability": "view",
      "type": "function",
      "signature": "0x17906c2e"
    },
    {
      "inputs": [],
      "payable": false,
      "stateMutability": "nonpayable",
      "type": "constructor",
      "signature": "constructor"
    },
    {
      "anonymous": false,
      "inputs": [
        {
          "indexed": false,
          "name": "id",
          "type": "uint256"
        },
        {
          "indexed": false,
          "name": "content",
          "type": "string"
        },
        {
          "indexed": false,
          "name": "hash",
          "type": "string"
        },
        {
          "indexed": false,
          "name": "tipAmount",
          "type": "uint256"
        },
        {
          "indexed": false,
          "name": "author",
          "type": "address"
        }
      ],
      "name": "PostCreated",
      "type": "event",
      "signature": "0x0e2769bd597cd7048e25b64a846e1254d4cb84b13c4aba4ad4a891baf7a399c6"
    },
    {
      "anonymous": false,
      "inputs": [
        {
          "indexed": false,
          "name": "id",
          "type": "uint256"
        },
        {
          "indexed": false,
          "name": "content",
          "type": "string"
        },
        {
          "indexed": false,
          "name": "hash",
          "type": "string"
        },
        {
          "indexed": false,
          "name": "tipAmount",
          "type": "uint256"
        },
        {
          "indexed": false,
          "name": "author",
          "type": "address"
        }
      ],
      "name": "PostTipped",
      "type": "event",
      "signature": "0x8cdd31fc6bd9c789638fdbd3ed5c788b27fa5d287f300e92f3c436ba03527db3"
    },
    {
      "constant": false,
      "inputs": [
        {
          "name": "_content",
          "type": "string"
        },
        {
          "name": "_imgHash",
          "type": "string"
        }
      ],
      "name": "createPost",
      "outputs": [],
      "payable": false,
      "stateMutability": "nonpayable",
      "type": "function",
      "signature": "0x392338f5"
    },
    {
      "constant": false,
      "inputs": [
        {
          "name": "_id",
          "type": "uint256"
        }
      ],
      "name": "tipPost",
      "outputs": [],
      "payable": true,
      "stateMutability": "payable",
      "type": "function",
      "signature": "0x74d3c1f8"
    }
  ],
  "bytecode": "0x6080604052600060015534801561001557600080fd5b506040805190810160405280600981526020017f426c6f636b6f546970000000000000000000000000000000000000000000000081525060009080519060200190610061929190610067565b5061010c565b828054600181600116156101000203166002900490600052602060002090601f016020900481019282601f106100a857805160ff19168380011785556100d6565b828001600101855582156100d6579182015b828111156100d55782518255916020019190600101906100ba565b5b5090506100e391906100e7565b5090565b61010991905b808211156101055760008160009055506001016100ed565b5090565b90565b610e6c8061011b6000396000f3fe60806040526004361061006d576000357c0100000000000000000000000000000000000000000000000000000000900463ffffffff16806306fdde03146100725780630b1e7f831461010257806317906c2e14610263578063392338f51461028e57806374d3c1f8146103ed575b600080fd5b34801561007e57600080fd5b5061008761041b565b6040518080602001828103825283818151815260200191508051906020019080838360005b838110156100c75780820151818401526020810190506100ac565b50505050905090810190601f1680156100f45780820380516001836020036101000a031916815260200191505b509250505060405180910390f35b34801561010e57600080fd5b5061013b6004803603602081101561012557600080fd5b81019080803590602001909291905050506104b9565b6040518086815260200180602001806020018581526020018473ffffffffffffffffffffffffffffffffffffffff1673ffffffffffffffffffffffffffffffffffffffff168152602001838103835287818151815260200191508051906020019080838360005b838110156101bd5780820151818401526020810190506101a2565b50505050905090810190601f1680156101ea5780820380516001836020036101000a031916815260200191505b50838103825286818151815260200191508051906020019080838360005b83811015610223578082015181840152602081019050610208565b50505050905090810190601f1680156102505780820380516001836020036101000a031916815260200191505b5097505050505050505060405180910390f35b34801561026f57600080fd5b5061027861063f565b6040518082815260200191505060405180910390f35b34801561029a57600080fd5b506103eb600480360360408110156102b157600080fd5b81019080803590602001906401000000008111156102ce57600080fd5b8201836020820111156102e057600080fd5b8035906020019184600183028401116401000000008311171561030257600080fd5b91908080601f016020809104026020016040519081016040528093929190818152602001838380828437600081840152601f19601f8201169050808301925050505050505091929192908035906020019064010000000081111561036557600080fd5b82018360208201111561037757600080fd5b8035906020019184600183028401116401000000008311171561039957600080fd5b91908080601f016020809104026020016040519081016040528093929190818152602001838380828437600081840152601f19601f820116905080830192505050505050509192919290505050610645565b005b6104196004803603602081101561040357600080fd5b81019080803590602001909291905050506108f5565b005b60008054600181600116156101000203166002900480601f0160208091040260200160405190810160405280929190818152602001828054600181600116156101000203166002900480156104b15780601f10610486576101008083540402835291602001916104b1565b820191906000526020600020905b81548152906001019060200180831161049457829003601f168201915b505050505081565b6002602052806000526040600020600091509050806000015490806001018054600181600116156101000203166002900480601f01602080910402602001604051908101604052809291908181526020018280546001816001161561010002031660029004801561056b5780601f106105405761010080835404028352916020019161056b565b820191906000526020600020905b81548152906001019060200180831161054e57829003601f168201915b505050505090806002018054600181600116156101000203166002900480601f0160208091040260200160405190810160405280929190818152602001828054600181600116156101000203166002900480156106095780601f106105de57610100808354040283529160200191610609565b820191906000526020600020905b8154815290600101906020018083116105ec57829003601f168201915b5050505050908060030154908060040160009054906101000a900473ffffffffffffffffffffffffffffffffffffffff16905085565b60015481565b6000815111151561065557600080fd5b6000825111151561066557600080fd5b600073ffffffffffffffffffffffffffffffffffffffff163373ffffffffffffffffffffffffffffffffffffffff16141515156106a157600080fd5b60016000815480929190600101919050555060a0604051908101604052806001548152602001838152602001828152602001600081526020013373ffffffffffffffffffffffffffffffffffffffff1681525060026000600154815260200190815260200160002060008201518160000155602082015181600101908051906020019061072f929190610d55565b50604082015181600201908051906020019061074c929190610d55565b506060820151816003015560808201518160040160006101000a81548173ffffffffffffffffffffffffffffffffffffffff021916908373ffffffffffffffffffffffffffffffffffffffff1602179055509050507f0e2769bd597cd7048e25b64a846e1254d4cb84b13c4aba4ad4a891baf7a399c660015483836000336040518086815260200180602001806020018581526020018473ffffffffffffffffffffffffffffffffffffffff1673ffffffffffffffffffffffffffffffffffffffff168152602001838103835287818151815260200191508051906020019080838360005b8381101561084c578082015181840152602081019050610831565b50505050905090810190601f1680156108795780820380516001836020036101000a031916815260200191505b50838103825286818151815260200191508051906020019080838360005b838110156108b2578082015181840152602081019050610897565b50505050905090810190601f1680156108df5780820380516001836020036101000a031916815260200191505b5097505050505050505060405180910390a15050565b60008111801561090757506001548111155b151561091257600080fd5b61091a610dd5565b6002600083815260200190815260200160002060a0604051908101604052908160008201548152602001600182018054600181600116156101000203166002900480601f0160208091040260200160405190810160405280929190818152602001828054600181600116156101000203166002900480156109dc5780601f106109b1576101008083540402835291602001916109dc565b820191906000526020600020905b8154815290600101906020018083116109bf57829003601f168201915b50505050508152602001600282018054600181600116156101000203166002900480601f016020809104026020016040519081016040528092919081815260200182805460018160011615610100020316600290048015610a7e5780601f10610a5357610100808354040283529160200191610a7e565b820191906000526020600020905b815481529060010190602001808311610a6157829003601f168201915b50505050508152602001600382015481526020016004820160009054906101000a900473ffffffffffffffffffffffffffffffffffffffff1673ffffffffffffffffffffffffffffffffffffffff1673ffffffffffffffffffffffffffffffffffffffff168152505090506000816080015190508073ffffffffffffffffffffffffffffffffffffffff166108fc349081150290604051600060405180830381858888f19350505050158015610b38573d6000803e3d6000fd5b50348260600151018260600181815250508160026000858152602001908152602001600020600082015181600001556020820151816001019080519060200190610b83929190610d55565b506040820151816002019080519060200190610ba0929190610d55565b506060820151816003015560808201518160040160006101000a81548173ffffffffffffffffffffffffffffffffffffffff021916908373ffffffffffffffffffffffffffffffffffffffff1602179055509050507f8cdd31fc6bd9c789638fdbd3ed5c788b27fa5d287f300e92f3c436ba03527db3600154836020015184604001518560600151856040518086815260200180602001806020018581526020018473ffffffffffffffffffffffffffffffffffffffff1673ffffffffffffffffffffffffffffffffffffffff168152602001838103835287818151815260200191508051906020019080838360005b83811015610cab578082015181840152602081019050610c90565b50505050905090810190601f168015610cd85780820380516001836020036101000a031916815260200191505b50838103825286818151815260200191508051906020019080838360005b83811015610d11578082015181840152602081019050610cf6565b50505050905090810190601f168015610d3e5780820380516001836020036101000a031916815260200191505b5097505050505050505060405180910390a1505050565b828054600181600116156101000203166002900490600052602060002090601f016020900481019282601f10610d9657805160ff1916838001178555610dc4565b82800160010185558215610dc4579182015b82811115610dc3578251825591602001919060010190610da8565b5b509050610dd19190610e1b565b5090565b60a06040519081016040528060008152602001606081526020016060815260200160008152602001600073ffffffffffffffffffffffffffffffffffffffff1681525090565b610e3d91905b80821115610e39576000816000905550600101610e21565b5090565b9056fea165627a7a72305820e2aba4e93f56182071e0cc6cdc85829a71d35d54bce53b1dbab751509e0e8e580029",
  "source": "pragma solidity ^0.5.0;\n\ncontract SocialNetwork {\n    string public name;\n    uint public postCount = 0;\n    mapping(uint => Post) public posts;\n\n    struct Post {\n        uint id;\n        string content;\n        string hash; // Image\n        uint tipAmount;\n        address payable author;\n    }\n\n    event PostCreated(\n        uint id,\n        string content,\n        string hash,\n        uint tipAmount,\n        address payable author\n    );\n\n    event PostTipped(\n        uint id,\n        string content,\n        string hash,\n        uint tipAmount,\n        address payable author\n    );\n\n    constructor() public {\n        name = \"BlockoTip\";\n    }\n\n    function createPost(string memory _content, string memory _imgHash) public {\n        // Make sure the image hash exists\n        require(bytes(_imgHash).length > 0);\n        // Require valid content\n        require(bytes(_content).length > 0);\n        // Make sure uploader address exists\n        require(msg.sender!=address(0));\n        // Increment the post count\n        postCount ++;\n        // Create the post\n        posts[postCount] = Post(postCount, _content, _imgHash, 0, msg.sender);\n        // Trigger event\n        emit PostCreated(postCount, _content, _imgHash,  0, msg.sender);\n    }\n\n    function tipPost(uint _id) public payable {\n        // Make sure the id is valid\n        require(_id > 0 && _id <= postCount);\n        // Fetch the post\n        Post memory _post = posts[_id];\n        // Fetch the author\n        address payable _author = _post.author;\n        // Pay the author by sending them Ether\n        address(_author).transfer(msg.value);\n        // Incremet the tip amount\n        _post.tipAmount = _post.tipAmount + msg.value;\n        // Update the post\n        posts[_id] = _post;\n        // Trigger an event\n        emit PostTipped(postCount, _post.content, _post.hash, _post.tipAmount, _author);\n    }\n}\n",
  "sourcePath": "D:/social-network/social-network/src/contracts/SocialNetwork.sol",
  "compiler": {
    "name": "solc",
    "version": "0.5.0+commit.1d4f565a.Emscripten.clang"
  },
  "schemaVersion": "3.0.1",
  "updatedAt": "2021-04-26T14:27:17.917Z",
  "devdoc": {
    "methods": {}
  },
  "userdoc": {
    "methods": {}
  }
}